{
  "contractName": "FlashSwap",
  "abi": [
    {
      "inputs": [
        {
          "internalType": "address",
          "name": "_addressProvider",
          "type": "address"
        }
      ],
      "stateMutability": "nonpayable",
      "type": "constructor"
    },
    {
      "anonymous": false,
      "inputs": [
        {
          "indexed": true,
          "internalType": "address",
          "name": "_from",
          "type": "address"
        },
        {
          "indexed": true,
          "internalType": "address",
          "name": "_assetAddress",
          "type": "address"
        },
        {
          "indexed": false,
          "internalType": "uint256",
          "name": "amount",
          "type": "uint256"
        }
      ],
      "name": "LogWithdraw",
      "type": "event"
    },
    {
      "anonymous": false,
      "inputs": [
        {
          "indexed": true,
          "internalType": "address",
          "name": "previousOwner",
          "type": "address"
        },
        {
          "indexed": true,
          "internalType": "address",
          "name": "newOwner",
          "type": "address"
        }
      ],
      "name": "OwnershipTransferred",
      "type": "event"
    },
    {
      "inputs": [],
      "name": "addressesProvider",
      "outputs": [
        {
          "internalType": "contract ILendingPoolAddressesProvider",
          "name": "",
          "type": "address"
        }
      ],
      "stateMutability": "view",
      "type": "function",
      "constant": true
    },
    {
      "inputs": [],
      "name": "deadline",
      "outputs": [
        {
          "internalType": "uint256",
          "name": "",
          "type": "uint256"
        }
      ],
      "stateMutability": "view",
      "type": "function",
      "constant": true
    },
    {
      "inputs": [],
      "name": "estimatedTokens",
      "outputs": [
        {
          "internalType": "uint256",
          "name": "",
          "type": "uint256"
        }
      ],
      "stateMutability": "view",
      "type": "function",
      "constant": true
    },
    {
      "inputs": [],
      "name": "ethAmount",
      "outputs": [
        {
          "internalType": "uint256",
          "name": "",
          "type": "uint256"
        }
      ],
      "stateMutability": "view",
      "type": "function",
      "constant": true
    },
    {
      "inputs": [],
      "name": "ethBalance",
      "outputs": [
        {
          "internalType": "uint256",
          "name": "",
          "type": "uint256"
        }
      ],
      "stateMutability": "view",
      "type": "function",
      "constant": true
    },
    {
      "inputs": [],
      "name": "owner",
      "outputs": [
        {
          "internalType": "address",
          "name": "",
          "type": "address"
        }
      ],
      "stateMutability": "view",
      "type": "function",
      "constant": true
    },
    {
      "inputs": [],
      "name": "renounceOwnership",
      "outputs": [],
      "stateMutability": "nonpayable",
      "type": "function"
    },
    {
      "inputs": [
        {
          "internalType": "string",
          "name": "",
          "type": "string"
        }
      ],
      "name": "routers",
      "outputs": [
        {
          "internalType": "string",
          "name": "direction",
          "type": "string"
        },
        {
          "internalType": "contract IUniswapV2Router02",
          "name": "router1",
          "type": "address"
        },
        {
          "internalType": "contract IUniswapV2Router02",
          "name": "router2",
          "type": "address"
        }
      ],
      "stateMutability": "view",
      "type": "function",
      "constant": true
    },
    {
      "inputs": [],
      "name": "sushiswapRouter",
      "outputs": [
        {
          "internalType": "contract IUniswapV2Router02",
          "name": "",
          "type": "address"
        }
      ],
      "stateMutability": "view",
      "type": "function",
      "constant": true
    },
    {
      "inputs": [],
      "name": "tokensOut",
      "outputs": [
        {
          "internalType": "uint256",
          "name": "",
          "type": "uint256"
        }
      ],
      "stateMutability": "view",
      "type": "function",
      "constant": true
    },
    {
      "inputs": [
        {
          "internalType": "address",
          "name": "newOwner",
          "type": "address"
        }
      ],
      "name": "transferOwnership",
      "outputs": [],
      "stateMutability": "nonpayable",
      "type": "function"
    },
    {
      "inputs": [],
      "name": "uniswapRouter",
      "outputs": [
        {
          "internalType": "contract IUniswapV2Router02",
          "name": "",
          "type": "address"
        }
      ],
      "stateMutability": "view",
      "type": "function",
      "constant": true
    },
    {
      "inputs": [
        {
          "internalType": "address",
          "name": "_assetAddress",
          "type": "address"
        }
      ],
      "name": "withdraw",
      "outputs": [],
      "stateMutability": "nonpayable",
      "type": "function"
    },
    {
      "stateMutability": "payable",
      "type": "receive",
      "payable": true
    },
    {
      "inputs": [
        {
          "internalType": "string",
          "name": "_dexName",
          "type": "string"
        },
        {
          "internalType": "contract IUniswapV2Router02",
          "name": "_router1",
          "type": "address"
        },
        {
          "internalType": "contract IUniswapV2Router02",
          "name": "_router2",
          "type": "address"
        }
      ],
      "name": "addRouters",
      "outputs": [],
      "stateMutability": "nonpayable",
      "type": "function"
    },
    {
      "inputs": [
        {
          "internalType": "address",
          "name": "_asset",
          "type": "address"
        },
        {
          "internalType": "uint256",
          "name": "_amount",
          "type": "uint256"
        },
        {
          "internalType": "string",
          "name": "_direction",
          "type": "string"
        }
      ],
      "name": "flashloan",
      "outputs": [],
      "stateMutability": "nonpayable",
      "type": "function"
    },
    {
      "inputs": [
        {
          "internalType": "address",
          "name": "_reserve",
          "type": "address"
        },
        {
          "internalType": "uint256",
          "name": "_amount",
          "type": "uint256"
        },
        {
          "internalType": "uint256",
          "name": "_fee",
          "type": "uint256"
        },
        {
          "internalType": "bytes",
          "name": "_params",
          "type": "bytes"
        }
      ],
      "name": "executeOperation",
      "outputs": [],
      "stateMutability": "nonpayable",
      "type": "function"
    },
    {
      "inputs": [
        {
          "internalType": "address",
          "name": "assest",
          "type": "address"
        },
        {
          "internalType": "uint256",
          "name": "_amount",
          "type": "uint256"
        },
        {
          "internalType": "contract IUniswapV2Router02",
          "name": "_router1",
          "type": "address"
        },
        {
          "internalType": "contract IUniswapV2Router02",
          "name": "_router2",
          "type": "address"
        }
      ],
      "name": "swapTokens",
      "outputs": [],
      "stateMutability": "nonpayable",
      "type": "function"
    },
    {
      "inputs": [
        {
          "internalType": "uint256",
          "name": "_tokenAmount",
          "type": "uint256"
        },
        {
          "internalType": "address",
          "name": "ERC20Token",
          "type": "address"
        },
        {
          "internalType": "contract IUniswapV2Router02",
          "name": "_router1",
          "type": "address"
        }
      ],
      "name": "getEstimatedETHForToken",
      "outputs": [
        {
          "internalType": "uint256[]",
          "name": "",
          "type": "uint256[]"
        }
      ],
      "stateMutability": "view",
      "type": "function",
      "constant": true
    },
    {
      "inputs": [
        {
          "internalType": "uint256",
          "name": "_tokenAmount",
          "type": "uint256"
        },
        {
          "internalType": "address",
          "name": "ERC20Token",
          "type": "address"
        },
        {
          "internalType": "contract IUniswapV2Router02",
          "name": "_router",
          "type": "address"
        }
      ],
      "name": "getEstimatedTokensForETH",
      "outputs": [
        {
          "internalType": "uint256[]",
          "name": "",
          "type": "uint256[]"
        }
      ],
      "stateMutability": "view",
      "type": "function",
      "constant": true
    }
  ],
  "bytecode": "0x60806040523480156200001157600080fd5b506040516200254e3803806200254e8339810160408190526200003491620000ff565b806200004962000043620000ab565b620000af565b600180546001600160a01b039092166001600160a01b0319928316179055600280548216737a250d5630b4cf539739df2c5dacb4c659f2488d17905560038054909116731b02da8cb0d097eb8d57a175b88c7d8b47997506179055506200012f565b3390565b600080546001600160a01b038381166001600160a01b0319831681178455604051919092169283917f8be0079c531659141344cd1fd0a4f28419497f9722a3daafe3b4186f6b6457e09190a35050565b60006020828403121562000111578081fd5b81516001600160a01b038116811462000128578182fd5b9392505050565b61240f806200013f6000396000f3fe6080604052600436106101485760003560e01c8063735de9f7116100c0578063ee87255811610074578063f5849c6511610059578063f5849c6514610332578063f6397d1d14610352578063fe949aa6146103675761014f565b8063ee872558146102f2578063f2fde38b146103125761014f565b8063c72c4d10116100a5578063c72c4d10146102b3578063c98166c0146102c8578063e9240c2d146102dd5761014f565b8063735de9f71461027c5780638da5cb5b1461029e5761014f565b80633576d0241161011757806351cff8d9116100fc57806351cff8d9146102275780636b1c8d8d14610247578063715018a6146102675761014f565b80633576d024146101e35780634e6630b0146102125761014f565b80630d43398014610154578063245ea84a1461018a57806329dcb0cf146101ac578063303b6128146101c15761014f565b3661014f57005b600080fd5b34801561016057600080fd5b5061017461016f366004611dd3565b610387565b6040516101819190611f42565b60405180910390f35b34801561019657600080fd5b5061019f610449565b60405161018191906121f0565b3480156101b857600080fd5b5061019f61044f565b3480156101cd57600080fd5b506101e16101dc366004611b1d565b610455565b005b3480156101ef57600080fd5b506102036101fe366004611d1e565b610741565b60405161018193929190611f99565b34801561021e57600080fd5b5061019f610810565b34801561023357600080fd5b506101e1610242366004611ae5565b610816565b34801561025357600080fd5b506101e1610262366004611b6f565b610a16565b34801561027357600080fd5b506101e1610c02565b34801561028857600080fd5b50610291610c81565b6040516101819190611eb2565b3480156102aa57600080fd5b50610291610c9d565b3480156102bf57600080fd5b50610291610cb9565b3480156102d457600080fd5b5061019f610cd5565b3480156102e957600080fd5b50610291610cdb565b3480156102fe57600080fd5b506101e161030d366004611bc6565b610cf7565b34801561031e57600080fd5b506101e161032d366004611ae5565b610e64565b34801561033e57600080fd5b506101e161034d366004611d59565b610f30565b34801561035e57600080fd5b5061019f611112565b34801561037357600080fd5b50610174610382366004611dd3565b611118565b60608173ffffffffffffffffffffffffffffffffffffffff1663d06ca61f856103b08686611141565b6040518363ffffffff1660e01b81526004016103cd9291906121f9565b60006040518083038186803b1580156103e557600080fd5b505afa1580156103f9573d6000803e3d6000fd5b505050506040513d6000823e601f3d9081017fffffffffffffffffffffffffffffffffffffffffffffffffffffffffffffffe016820160405261043f9190810190611c57565b90505b9392505050565b60085481565b60055481565b836104624261012c6122c7565b6005556040517f095ea7b300000000000000000000000000000000000000000000000000000000815273ffffffffffffffffffffffffffffffffffffffff82169063095ea7b3906104b99086908890600401611f1c565b602060405180830381600087803b1580156104d357600080fd5b505af11580156104e7573d6000803e3d6000fd5b505050506040513d601f19601f8201168201806040525081019061050b9190611cfe565b506000610519858786611118565b600181518110610552577f4e487b7100000000000000000000000000000000000000000000000000000000600052603260045260246000fd5b602002602001015190508373ffffffffffffffffffffffffffffffffffffffff166318cbafe586836105848a896112c1565b306005546040518663ffffffff1660e01b81526004016105a8959493929190612254565b600060405180830381600087803b1580156105c257600080fd5b505af11580156105d6573d6000803e3d6000fd5b505050506040513d6000823e601f3d9081017fffffffffffffffffffffffffffffffffffffffffffffffffffffffffffffffe016820160405261061c9190810190611c57565b5047600681905561062e908785610387565b600181518110610667577f4e487b7100000000000000000000000000000000000000000000000000000000600052603260045260246000fd5b60200260200101516008819055508273ffffffffffffffffffffffffffffffffffffffff16637ff36ab56006546008546106a18a88611141565b306005546040518663ffffffff1660e01b81526004016106c49493929190612212565b6000604051808303818588803b1580156106dd57600080fd5b505af11580156106f1573d6000803e3d6000fd5b50505050506040513d6000823e601f3d9081017fffffffffffffffffffffffffffffffffffffffffffffffffffffffffffffffe01682016040526107389190810190611c57565b50505050505050565b805160208183018101805160098252928201919093012091528054819061076790612334565b80601f016020809104026020016040519081016040528092919081815260200182805461079390612334565b80156107e05780601f106107b5576101008083540402835291602001916107e0565b820191906000526020600020905b8154815290600101906020018083116107c357829003601f168201915b505050506001830154600290930154919273ffffffffffffffffffffffffffffffffffffffff9081169216905083565b60065481565b61081e611413565b73ffffffffffffffffffffffffffffffffffffffff1661083c610c9d565b73ffffffffffffffffffffffffffffffffffffffff1614610892576040517f08c379a000000000000000000000000000000000000000000000000000000000815260040161088990612127565b60405180910390fd5b600073ffffffffffffffffffffffffffffffffffffffff82166108e8575060405130803191339083156108fc029084906000818181858888f193505050501580156108e1573d6000803e3d6000fd5b50506109ad565b6040517f70a0823100000000000000000000000000000000000000000000000000000000815273ffffffffffffffffffffffffffffffffffffffff8316906370a082319061093a903090600401611eb2565b60206040518083038186803b15801561095257600080fd5b505afa158015610966573d6000803e3d6000fd5b505050506040513d601f19601f8201168201806040525081019061098a9190611dbb565b90506109ad73ffffffffffffffffffffffffffffffffffffffff83163383611417565b8173ffffffffffffffffffffffffffffffffffffffff163373ffffffffffffffffffffffffffffffffffffffff167f9207361cc2a04b9c7a06691df1eb87c6a63957ae88bf01d0d18c81e3d127209983604051610a0a91906121f0565b60405180910390a35050565b610a1e611413565b73ffffffffffffffffffffffffffffffffffffffff16610a3c610c9d565b73ffffffffffffffffffffffffffffffffffffffff1614610a89576040517f08c379a000000000000000000000000000000000000000000000000000000000815260040161088990612127565b600081604051602001610a9c9190611f86565b604080517fffffffffffffffffffffffffffffffffffffffffffffffffffffffffffffffe08184030181528282526001547f0261bf8b000000000000000000000000000000000000000000000000000000008452915190935060009273ffffffffffffffffffffffffffffffffffffffff90921691630261bf8b916004808301926020929190829003018186803b158015610b3657600080fd5b505afa158015610b4a573d6000803e3d6000fd5b505050506040513d601f19601f82011682018060405250810190610b6e9190611b01565b6040517f5cffe9de00000000000000000000000000000000000000000000000000000000815290915073ffffffffffffffffffffffffffffffffffffffff821690635cffe9de90610bc9903090899089908890600401611ed3565b600060405180830381600087803b158015610be357600080fd5b505af1158015610bf7573d6000803e3d6000fd5b505050505050505050565b610c0a611413565b73ffffffffffffffffffffffffffffffffffffffff16610c28610c9d565b73ffffffffffffffffffffffffffffffffffffffff1614610c75576040517f08c379a000000000000000000000000000000000000000000000000000000000815260040161088990612127565b610c7f60006114bd565b565b60025473ffffffffffffffffffffffffffffffffffffffff1681565b60005473ffffffffffffffffffffffffffffffffffffffff1690565b60015473ffffffffffffffffffffffffffffffffffffffff1681565b60075481565b60035473ffffffffffffffffffffffffffffffffffffffff1681565b610d013086611532565b841115610d3a576040517f08c379a0000000000000000000000000000000000000000000000000000000008152600401610889906120ca565b60006009610d4a83850185611d1e565b604051610d579190611e93565b9081526020016040518091039020604051806060016040529081600082018054610d8090612334565b80601f0160208091040260200160405190810160405280929190818152602001828054610dac90612334565b8015610df95780601f10610dce57610100808354040283529160200191610df9565b820191906000526020600020905b815481529060010190602001808311610ddc57829003601f168201915b5050509183525050600182015473ffffffffffffffffffffffffffffffffffffffff908116602080840191909152600290930154166040918201529082015190820151919250610e4c9188918891610455565b6000610e588686611626565b90506107388782611632565b610e6c611413565b73ffffffffffffffffffffffffffffffffffffffff16610e8a610c9d565b73ffffffffffffffffffffffffffffffffffffffff1614610ed7576040517f08c379a000000000000000000000000000000000000000000000000000000000815260040161088990612127565b73ffffffffffffffffffffffffffffffffffffffff8116610f24576040517f08c379a000000000000000000000000000000000000000000000000000000000815260040161088990611fd9565b610f2d816114bd565b50565b610f38611413565b73ffffffffffffffffffffffffffffffffffffffff16610f56610c9d565b73ffffffffffffffffffffffffffffffffffffffff1614610fa3576040517f08c379a000000000000000000000000000000000000000000000000000000000815260040161088990612127565b8173ffffffffffffffffffffffffffffffffffffffff16600984604051610fca9190611e93565b9081526040519081900360200190206001015473ffffffffffffffffffffffffffffffffffffffff16141561102b576040517f08c379a000000000000000000000000000000000000000000000000000000000815260040161088990612036565b60405180606001604052808481526020018373ffffffffffffffffffffffffffffffffffffffff1681526020018273ffffffffffffffffffffffffffffffffffffffff168152506009846040516110829190611e93565b908152602001604051809103902060008201518160000190805190602001906110ac9291906119c3565b5060208201516001820180547fffffffffffffffffffffffff000000000000000000000000000000000000000090811673ffffffffffffffffffffffffffffffffffffffff93841617909155604090930151600290920180549093169116179055505050565b60045481565b60608173ffffffffffffffffffffffffffffffffffffffff1663d06ca61f856103b086866112c1565b604080516002808252606080830184529260009291906020830190803683370190505090508273ffffffffffffffffffffffffffffffffffffffff1663ad5c46486040518163ffffffff1660e01b815260040160206040518083038186803b1580156111ac57600080fd5b505afa1580156111c0573d6000803e3d6000fd5b505050506040513d601f19601f820116820180604052508101906111e49190611b01565b8160008151811061121e577f4e487b7100000000000000000000000000000000000000000000000000000000600052603260045260246000fd5b602002602001019073ffffffffffffffffffffffffffffffffffffffff16908173ffffffffffffffffffffffffffffffffffffffff16815250508381600181518110611293577f4e487b7100000000000000000000000000000000000000000000000000000000600052603260045260246000fd5b73ffffffffffffffffffffffffffffffffffffffff9092166020928302919091019091015290505b92915050565b604080516002808252606080830184529260009291906020830190803683370190505090508381600081518110611321577f4e487b7100000000000000000000000000000000000000000000000000000000600052603260045260246000fd5b602002602001019073ffffffffffffffffffffffffffffffffffffffff16908173ffffffffffffffffffffffffffffffffffffffff16815250508273ffffffffffffffffffffffffffffffffffffffff1663ad5c46486040518163ffffffff1660e01b815260040160206040518083038186803b1580156113a157600080fd5b505afa1580156113b5573d6000803e3d6000fd5b505050506040513d601f19601f820116820180604052508101906113d99190611b01565b81600181518110611293577f4e487b7100000000000000000000000000000000000000000000000000000000600052603260045260246000fd5b3390565b6114b88363a9059cbb60e01b8484604051602401611436929190611f1c565b604080517fffffffffffffffffffffffffffffffffffffffffffffffffffffffffffffffe08184030181529190526020810180517bffffffffffffffffffffffffffffffffffffffffffffffffffffffff167fffffffff00000000000000000000000000000000000000000000000000000000909316929092179091526116e2565b505050565b6000805473ffffffffffffffffffffffffffffffffffffffff8381167fffffffffffffffffffffffff0000000000000000000000000000000000000000831681178455604051919092169283917f8be0079c531659141344cd1fd0a4f28419497f9722a3daafe3b4186f6b6457e09190a35050565b600073ffffffffffffffffffffffffffffffffffffffff821673eeeeeeeeeeeeeeeeeeeeeeeeeeeeeeeeeeeeeeee1415611584575073ffffffffffffffffffffffffffffffffffffffff8216316112bb565b6040517f70a0823100000000000000000000000000000000000000000000000000000000815273ffffffffffffffffffffffffffffffffffffffff8316906370a08231906115d6908690600401611eb2565b60206040518083038186803b1580156115ee57600080fd5b505afa158015611602573d6000803e3d6000fd5b505050506040513d601f19601f820116820180604052508101906104429190611dbb565b600061044282846122c7565b600154604080517fed6ff760000000000000000000000000000000000000000000000000000000008152905160009273ffffffffffffffffffffffffffffffffffffffff169163ed6ff760916004808301926020929190829003018186803b15801561169d57600080fd5b505afa1580156116b1573d6000803e3d6000fd5b505050506040513d601f19601f820116820180604052508101906116d59190611b01565b90506114b8818484611798565b6000611744826040518060400160405280602081526020017f5361666545524332303a206c6f772d6c6576656c2063616c6c206661696c65648152508573ffffffffffffffffffffffffffffffffffffffff1661189a9092919063ffffffff16565b8051909150156114b857808060200190518101906117629190611cfe565b6114b8576040517f08c379a000000000000000000000000000000000000000000000000000000000815260040161088990612193565b73ffffffffffffffffffffffffffffffffffffffff821673eeeeeeeeeeeeeeeeeeeeeeeeeeeeeeeeeeeeeeee14156118795760008373ffffffffffffffffffffffffffffffffffffffff16826040516117f090611eaf565b60006040518083038185875af1925050503d806000811461182d576040519150601f19603f3d011682016040523d82523d6000602084013e611832565b606091505b5090915050600181151514611873576040517f08c379a000000000000000000000000000000000000000000000000000000000815260040161088990612093565b506114b8565b6114b873ffffffffffffffffffffffffffffffffffffffff83168483611417565b606061043f8484600085856118ae8561196a565b6118e4576040517f08c379a00000000000000000000000000000000000000000000000000000000081526004016108899061215c565b6000808673ffffffffffffffffffffffffffffffffffffffff16858760405161190d9190611e93565b60006040518083038185875af1925050503d806000811461194a576040519150601f19603f3d011682016040523d82523d6000602084013e61194f565b606091505b509150915061195f828286611970565b979650505050505050565b3b151590565b6060831561197f575081610442565b82511561198f5782518084602001fd5b816040517f08c379a00000000000000000000000000000000000000000000000000000000081526004016108899190611f86565b8280546119cf90612334565b90600052602060002090601f0160209004810192826119f15760008555611a37565b82601f10611a0a57805160ff1916838001178555611a37565b82800160010185558215611a37579182015b82811115611a37578251825591602001919060010190611a1c565b50611a43929150611a47565b5090565b5b80821115611a435760008155600101611a48565b600082601f830112611a6c578081fd5b813567ffffffffffffffff811115611a8657611a86612388565b611ab760207fffffffffffffffffffffffffffffffffffffffffffffffffffffffffffffffe0601f8401160161229d565b818152846020838601011115611acb578283fd5b816020850160208301379081016020019190915292915050565b600060208284031215611af6578081fd5b8135610442816123b7565b600060208284031215611b12578081fd5b8151610442816123b7565b60008060008060808587031215611b32578283fd5b8435611b3d816123b7565b9350602085013592506040850135611b54816123b7565b91506060850135611b64816123b7565b939692955090935050565b600080600060608486031215611b83578283fd5b8335611b8e816123b7565b925060208401359150604084013567ffffffffffffffff811115611bb0578182fd5b611bbc86828701611a5c565b9150509250925092565b600080600080600060808688031215611bdd578081fd5b8535611be8816123b7565b94506020860135935060408601359250606086013567ffffffffffffffff80821115611c12578283fd5b818801915088601f830112611c25578283fd5b813581811115611c33578384fd5b896020828501011115611c44578384fd5b9699959850939650602001949392505050565b60006020808385031215611c69578182fd5b825167ffffffffffffffff80821115611c80578384fd5b818501915085601f830112611c93578384fd5b815181811115611ca557611ca5612388565b8381029150611cb584830161229d565b8181528481019084860184860187018a1015611ccf578788fd5b8795505b83861015611cf1578051835260019590950194918601918601611cd3565b5098975050505050505050565b600060208284031215611d0f578081fd5b81518015158114610442578182fd5b600060208284031215611d2f578081fd5b813567ffffffffffffffff811115611d45578182fd5b611d5184828501611a5c565b949350505050565b600080600060608486031215611d6d578283fd5b833567ffffffffffffffff811115611d83578384fd5b611d8f86828701611a5c565b9350506020840135611da0816123b7565b91506040840135611db0816123b7565b809150509250925092565b600060208284031215611dcc578081fd5b5051919050565b600080600060608486031215611de7578283fd5b833592506020840135611da0816123b7565b6000815180845260208085019450808401835b83811015611e3e57815173ffffffffffffffffffffffffffffffffffffffff1687529582019590820190600101611e0c565b509495945050505050565b60008151808452611e61816020860160208601612304565b601f017fffffffffffffffffffffffffffffffffffffffffffffffffffffffffffffffe0169290920160200192915050565b60008251611ea5818460208701612304565b9190910192915050565b90565b73ffffffffffffffffffffffffffffffffffffffff91909116815260200190565b600073ffffffffffffffffffffffffffffffffffffffff808716835280861660208401525083604083015260806060830152611f126080830184611e49565b9695505050505050565b73ffffffffffffffffffffffffffffffffffffffff929092168252602082015260400190565b6020808252825182820181905260009190848201906040850190845b81811015611f7a57835183529284019291840191600101611f5e565b50909695505050505050565b6000602082526104426020830184611e49565b600060608252611fac6060830186611e49565b73ffffffffffffffffffffffffffffffffffffffff94851660208401529290931660409091015292915050565b60208082526026908201527f4f776e61626c653a206e6577206f776e657220697320746865207a65726f206160408201527f6464726573730000000000000000000000000000000000000000000000000000606082015260800190565b60208082526022908201527f466c6173686c6f616e2033363a20526f7574657220616c72656164792061646460408201527f6564000000000000000000000000000000000000000000000000000000000000606082015260800190565b60208082526015908201527f436f756c646e2774207472616e73666572204554480000000000000000000000604082015260600190565b6020808252602e908201527f496e76616c69642062616c616e63652c207761732074686520666c6173684c6f60408201527f616e207375636365737366756c3f000000000000000000000000000000000000606082015260800190565b6020808252818101527f4f776e61626c653a2063616c6c6572206973206e6f7420746865206f776e6572604082015260600190565b6020808252601d908201527f416464726573733a2063616c6c20746f206e6f6e2d636f6e7472616374000000604082015260600190565b6020808252602a908201527f5361666545524332303a204552433230206f7065726174696f6e20646964206e60408201527f6f74207375636365656400000000000000000000000000000000000000000000606082015260800190565b90815260200190565b60008382526040602083015261043f6040830184611df9565b60008582526080602083015261222b6080830186611df9565b73ffffffffffffffffffffffffffffffffffffffff949094166040830152506060015292915050565b600086825285602083015260a0604083015261227360a0830186611df9565b73ffffffffffffffffffffffffffffffffffffffff94909416606083015250608001529392505050565b60405181810167ffffffffffffffff811182821017156122bf576122bf612388565b604052919050565b600082198211156122ff577f4e487b710000000000000000000000000000000000000000000000000000000081526011600452602481fd5b500190565b60005b8381101561231f578181015183820152602001612307565b8381111561232e576000848401525b50505050565b60028104600182168061234857607f821691505b60208210811415612382577f4e487b7100000000000000000000000000000000000000000000000000000000600052602260045260246000fd5b50919050565b7f4e487b7100000000000000000000000000000000000000000000000000000000600052604160045260246000fd5b73ffffffffffffffffffffffffffffffffffffffff81168114610f2d57600080fdfea26469706673582212207a35a53547f60cd0da146a7ae9da45e38bb3bfd8a96d2b1e14c55bec89c5995064736f6c63430008000033",
  "immutableReferences": {},
  "source": "// SPDX-License-Identifier: MIT\n\npragma solidity ^0.8.0;\npragma experimental ABIEncoderV2;\n\nimport \"./aave/FlashLoanReceiverBase.sol\";\nimport \"./aave/ILendingPoolAddressesProvider.sol\";\nimport \"./aave/ILendingPool.sol\";\nimport {SafeMath} from './utils/math/SafeMath.sol';\nimport \"./uniswap/IUniswapV2Router02.sol\";\nimport \"./uniswap/IUniswapV2Factory.sol\";\n\ncontract FlashSwap is FlashLoanReceiverBase {\n    using SafeMath for uint256;\n    \n    IUniswapV2Router02 public uniswapRouter;\n    IUniswapV2Router02 public sushiswapRouter;\n    uint256 public tokensOut;\n    uint256 public deadline;\n    uint256 public ethBalance;\n    uint256 public ethAmount;\n    uint256 public estimatedTokens;\n\n    struct ArbInfo {\n        string direction;\n        IUniswapV2Router02 router1;\n        IUniswapV2Router02 router2;\n    }\n\n    mapping(string => ArbInfo) public routers;\n\n    constructor(address _addressProvider) FlashLoanReceiverBase(_addressProvider) public {\n        uniswapRouter = IUniswapV2Router02(\n            0x7a250d5630B4cF539739dF2C5dAcb4c659F2488D\n        );\n        sushiswapRouter = IUniswapV2Router02(\n            0x1b02dA8Cb0d097eB8D57A175b88c7D8b47997506\n        );\n    }\n\n    function addRouters(string memory _dexName, IUniswapV2Router02 _router1, IUniswapV2Router02 _router2) public onlyOwner {\n        require(routers[_dexName].router1 != _router1, 'Flashloan 36: Router already added');\n\n        routers[_dexName] = ArbInfo(_dexName, _router1, _router2);\n    }\n\n    function flashloan(address _asset, uint256 _amount, string memory _direction) public onlyOwner {\n        bytes memory data = abi.encode(_direction);\n\n        ILendingPool lendingPool = ILendingPool(addressesProvider.getLendingPool());\n        lendingPool.flashLoan(address(this), _asset, _amount, data);\n    }\n\n    function executeOperation(\n        address _reserve,\n        uint256 _amount,\n        uint256 _fee,\n        bytes calldata _params\n    )\n        external\n        override\n    {\n        require(_amount <= getBalanceInternal(address(this), _reserve), \"Invalid balance, was the flashLoan successful?\");\n        \n        ArbInfo memory _arbInfo = routers[abi.decode(bytes(_params), (string))];       \n        // swap trade logic goes here.\n        swapTokens(_reserve, _amount, _arbInfo.router1, _arbInfo.router2);\n\n        uint totalDebt = _amount.add(_fee);\n        transferFundsBackToPoolInternal(_reserve, totalDebt);\n    }\n\n    // asset - _reserve, amountToTrade -> _amount\n    // we take dai from aave convert it to eth then swap them back to dai from sushiswap\n    function swapTokens(\n        address assest, \n        uint256 _amount, \n        IUniswapV2Router02 _router1, \n        IUniswapV2Router02 _router2\n    ) public {\n        IERC20 dai = IERC20(assest);\n        deadline = block.timestamp + 300;\n\n        dai.approve(address(_router1), _amount);\n        uint256 estimatedETH =\n            getEstimatedETHForToken(_amount, address(assest), _router1)[1];\n\n        _router1.swapExactTokensForETH(\n            _amount,\n            estimatedETH,\n            getAssetPath(address(assest), _router1),\n            address(this),\n            deadline\n        );\n\n        ethBalance = address(this).balance;\n\n        estimatedTokens = getEstimatedTokensForETH(\n            ethBalance,\n            address(assest),\n            _router2\n        )[1];\n\n        _router2.swapExactETHForTokens{value: ethBalance}(\n            estimatedTokens,\n            getETHPath(address(assest), _router2),\n            address(this),\n            deadline\n        );\n    }\n\n    function getEstimatedETHForToken(\n        uint256 _tokenAmount, \n        address ERC20Token,\n        IUniswapV2Router02 _router1 \n    )\n        public\n        view\n        returns (uint256[] memory)\n    {\n        return\n            _router1.getAmountsOut(_tokenAmount, getAssetPath(ERC20Token, _router1));\n    }\n\n    function getEstimatedTokensForETH(\n        uint256 _tokenAmount, \n        address ERC20Token,\n        IUniswapV2Router02 _router\n    )\n        public\n        view\n        returns (uint256[] memory)\n    {\n        return\n            _router.getAmountsOut(_tokenAmount, getETHPath(ERC20Token, _router));\n    }\n\n    function getAssetPath(\n        address Token,\n        IUniswapV2Router02 _router1\n    )\n        private\n        view\n        returns (address[] memory)\n    {\n        address[] memory path = new address[](2);\n        path[0] = Token;\n        path[1] = _router1.WETH();\n\n        return path;\n    }\n\n    function getETHPath(\n        address Token, \n        IUniswapV2Router02 _router\n    ) private view returns (address[] memory) {\n        address[] memory path = new address[](2);\n        path[0] = _router.WETH();\n        path[1] = Token;\n\n        return path;\n    }\n    //receive() external payable {}\n}",
  "sourcePath": "/Users/sagarbehara/Work/Wolf-of-cryptostreet/contracts/FlashSwap.sol",
  "compiler": {
    "name": "solc",
    "version": "0.8.0+commit.c7dfd78e.Emscripten.clang"
  },
  "schemaVersion": "3.4.1",
  "updatedAt": "2021-07-07T13:34:35.065Z",
  "networkType": "ethereum",
  "devdoc": {
    "kind": "dev",
    "methods": {
      "owner()": {
        "details": "Returns the address of the current owner."
      },
      "renounceOwnership()": {
        "details": "Leaves the contract without owner. It will not be possible to call `onlyOwner` functions anymore. Can only be called by the current owner. NOTE: Renouncing ownership will leave the contract without an owner, thereby removing any functionality that is only available to the owner."
      },
      "transferOwnership(address)": {
        "details": "Transfers ownership of the contract to a new account (`newOwner`). Can only be called by the current owner."
      },
      "withdraw(address)": {
        "details": "Withdraw asset.",
        "params": {
          "_assetAddress": "Asset to be withdrawn."
        }
      }
    },
    "version": 1
  },
  "userdoc": {
    "kind": "user",
    "methods": {},
    "version": 1
  }
}