{
  "contractName": "Withdrawable",
  "abi": [
    {
      "anonymous": false,
      "inputs": [
        {
          "indexed": true,
          "internalType": "address",
          "name": "_from",
          "type": "address"
        },
        {
          "indexed": true,
          "internalType": "address",
          "name": "_assetAddress",
          "type": "address"
        },
        {
          "indexed": false,
          "internalType": "uint256",
          "name": "amount",
          "type": "uint256"
        }
      ],
      "name": "LogWithdraw",
      "type": "event"
    },
    {
      "anonymous": false,
      "inputs": [
        {
          "indexed": true,
          "internalType": "address",
          "name": "previousOwner",
          "type": "address"
        },
        {
          "indexed": true,
          "internalType": "address",
          "name": "newOwner",
          "type": "address"
        }
      ],
      "name": "OwnershipTransferred",
      "type": "event"
    },
    {
      "inputs": [],
      "name": "owner",
      "outputs": [
        {
          "internalType": "address",
          "name": "",
          "type": "address"
        }
      ],
      "stateMutability": "view",
      "type": "function"
    },
    {
      "inputs": [],
      "name": "renounceOwnership",
      "outputs": [],
      "stateMutability": "nonpayable",
      "type": "function"
    },
    {
      "inputs": [
        {
          "internalType": "address",
          "name": "newOwner",
          "type": "address"
        }
      ],
      "name": "transferOwnership",
      "outputs": [],
      "stateMutability": "nonpayable",
      "type": "function"
    },
    {
      "inputs": [
        {
          "internalType": "address",
          "name": "_assetAddress",
          "type": "address"
        }
      ],
      "name": "withdraw",
      "outputs": [],
      "stateMutability": "nonpayable",
      "type": "function"
    }
  ],
  "bytecode": "0x608060405234801561001057600080fd5b5061002161001c610026565b61002a565b61007a565b3390565b600080546001600160a01b038381166001600160a01b0319831681178455604051919092169283917f8be0079c531659141344cd1fd0a4f28419497f9722a3daafe3b4186f6b6457e09190a35050565b610a60806100896000396000f3fe608060405234801561001057600080fd5b506004361061004c5760003560e01c806351cff8d914610051578063715018a6146100665780638da5cb5b1461006e578063f2fde38b1461008c575b600080fd5b61006461005f36600461074e565b61009f565b005b61006461029f565b61007661031e565b60405161008391906107d6565b60405180910390f35b61006461009a36600461074e565b61033a565b6100a7610406565b73ffffffffffffffffffffffffffffffffffffffff166100c561031e565b73ffffffffffffffffffffffffffffffffffffffff161461011b576040517f08c379a000000000000000000000000000000000000000000000000000000000815260040161011290610928565b60405180910390fd5b600073ffffffffffffffffffffffffffffffffffffffff8216610171575060405130803191339083156108fc029084906000818181858888f1935050505015801561016a573d6000803e3d6000fd5b5050610236565b6040517f70a0823100000000000000000000000000000000000000000000000000000000815273ffffffffffffffffffffffffffffffffffffffff8316906370a08231906101c39030906004016107d6565b60206040518083038186803b1580156101db57600080fd5b505afa1580156101ef573d6000803e3d6000fd5b505050506040513d601f19601f8201168201806040525081019061021391906107a2565b905061023673ffffffffffffffffffffffffffffffffffffffff8316338361040a565b8173ffffffffffffffffffffffffffffffffffffffff163373ffffffffffffffffffffffffffffffffffffffff167f9207361cc2a04b9c7a06691df1eb87c6a63957ae88bf01d0d18c81e3d12720998360405161029391906109f1565b60405180910390a35050565b6102a7610406565b73ffffffffffffffffffffffffffffffffffffffff166102c561031e565b73ffffffffffffffffffffffffffffffffffffffff1614610312576040517f08c379a000000000000000000000000000000000000000000000000000000000815260040161011290610928565b61031c60006104b0565b565b60005473ffffffffffffffffffffffffffffffffffffffff1690565b610342610406565b73ffffffffffffffffffffffffffffffffffffffff1661036061031e565b73ffffffffffffffffffffffffffffffffffffffff16146103ad576040517f08c379a000000000000000000000000000000000000000000000000000000000815260040161011290610928565b73ffffffffffffffffffffffffffffffffffffffff81166103fa576040517f08c379a00000000000000000000000000000000000000000000000000000000081526004016101129061086e565b610403816104b0565b50565b3390565b6104ab8363a9059cbb60e01b84846040516024016104299291906107f7565b604080517fffffffffffffffffffffffffffffffffffffffffffffffffffffffffffffffe08184030181529190526020810180517bffffffffffffffffffffffffffffffffffffffffffffffffffffffff167fffffffff0000000000000000000000000000000000000000000000000000000090931692909217909152610525565b505050565b6000805473ffffffffffffffffffffffffffffffffffffffff8381167fffffffffffffffffffffffff0000000000000000000000000000000000000000831681178455604051919092169283917f8be0079c531659141344cd1fd0a4f28419497f9722a3daafe3b4186f6b6457e09190a35050565b6000610587826040518060400160405280602081526020017f5361666545524332303a206c6f772d6c6576656c2063616c6c206661696c65648152508573ffffffffffffffffffffffffffffffffffffffff166105db9092919063ffffffff16565b8051909150156104ab57808060200190518101906105a59190610782565b6104ab576040517f08c379a000000000000000000000000000000000000000000000000000000000815260040161011290610994565b60606105ea84846000856105f4565b90505b9392505050565b606082471015610630576040517f08c379a0000000000000000000000000000000000000000000000000000000008152600401610112906108cb565b610639856106f5565b61066f576040517f08c379a00000000000000000000000000000000000000000000000000000000081526004016101129061095d565b6000808673ffffffffffffffffffffffffffffffffffffffff16858760405161069891906107ba565b60006040518083038185875af1925050503d80600081146106d5576040519150601f19603f3d011682016040523d82523d6000602084013e6106da565b606091505b50915091506106ea8282866106fb565b979650505050505050565b3b151590565b6060831561070a5750816105ed565b82511561071a5782518084602001fd5b816040517f08c379a0000000000000000000000000000000000000000000000000000000008152600401610112919061081d565b60006020828403121561075f578081fd5b813573ffffffffffffffffffffffffffffffffffffffff811681146105ed578182fd5b600060208284031215610793578081fd5b815180151581146105ed578182fd5b6000602082840312156107b3578081fd5b5051919050565b600082516107cc8184602087016109fa565b9190910192915050565b73ffffffffffffffffffffffffffffffffffffffff91909116815260200190565b73ffffffffffffffffffffffffffffffffffffffff929092168252602082015260400190565b600060208252825180602084015261083c8160408501602087016109fa565b601f017fffffffffffffffffffffffffffffffffffffffffffffffffffffffffffffffe0169190910160400192915050565b60208082526026908201527f4f776e61626c653a206e6577206f776e657220697320746865207a65726f206160408201527f6464726573730000000000000000000000000000000000000000000000000000606082015260800190565b60208082526026908201527f416464726573733a20696e73756666696369656e742062616c616e636520666f60408201527f722063616c6c0000000000000000000000000000000000000000000000000000606082015260800190565b6020808252818101527f4f776e61626c653a2063616c6c6572206973206e6f7420746865206f776e6572604082015260600190565b6020808252601d908201527f416464726573733a2063616c6c20746f206e6f6e2d636f6e7472616374000000604082015260600190565b6020808252602a908201527f5361666545524332303a204552433230206f7065726174696f6e20646964206e60408201527f6f74207375636365656400000000000000000000000000000000000000000000606082015260800190565b90815260200190565b60005b83811015610a155781810151838201526020016109fd565b83811115610a24576000848401525b5050505056fea26469706673582212200120cfcba7981abbe1859c4c247fb27d2c7b8dcd527ba8667d523e6f776bb2d564736f6c63430008000033",
  "immutableReferences": {},
  "source": "// SPDX-License-Identifier: MIT\n\npragma solidity ^0.8.0;\n\nimport \"@openzeppelin/contracts/token/ERC20/ERC20.sol\";\nimport \"@openzeppelin/contracts/access/Ownable.sol\";\nimport \"@openzeppelin/contracts/token/ERC20/utils/SafeERC20.sol\";\n/**\n    Ensures that any contract that inherits from this contract is able to\n    withdraw funds that are accidentally received or stuck.\n */\n \n \ncontract Withdrawable is Ownable {\n    using SafeERC20 for ERC20;\n    address constant ETHER = address(0);\n\n    event LogWithdraw(\n        address indexed _from,\n        address indexed _assetAddress,\n        uint amount\n    );\n\n    /**\n     * @dev Withdraw asset.\n     * @param _assetAddress Asset to be withdrawn.\n     */\n    function withdraw(address _assetAddress) public onlyOwner {\n        uint assetBalance;\n        if (_assetAddress == ETHER) {\n            address self = address(this); // workaround for a possible solidity bug\n            assetBalance = self.balance;\n            payable(msg.sender).transfer(assetBalance);\n        } else {\n            assetBalance = ERC20(_assetAddress).balanceOf(address(this));\n            ERC20(_assetAddress).safeTransfer(msg.sender, assetBalance);\n        }\n        emit LogWithdraw(msg.sender, _assetAddress, assetBalance);\n    }\n}",
  "sourcePath": "/Users/sagarbehara/Work/Wolf-of-cryptostreet/contracts/utils/Withdrawable.sol",
  "compiler": {
    "name": "solc",
    "version": "0.8.0+commit.c7dfd78e.Emscripten.clang"
  },
  "schemaVersion": "3.4.1",
  "updatedAt": "2021-07-07T13:34:08.872Z",
  "devdoc": {
    "kind": "dev",
    "methods": {
      "owner()": {
        "details": "Returns the address of the current owner."
      },
      "renounceOwnership()": {
        "details": "Leaves the contract without owner. It will not be possible to call `onlyOwner` functions anymore. Can only be called by the current owner. NOTE: Renouncing ownership will leave the contract without an owner, thereby removing any functionality that is only available to the owner."
      },
      "transferOwnership(address)": {
        "details": "Transfers ownership of the contract to a new account (`newOwner`). Can only be called by the current owner."
      },
      "withdraw(address)": {
        "details": "Withdraw asset.",
        "params": {
          "_assetAddress": "Asset to be withdrawn."
        }
      }
    },
    "version": 1
  },
  "userdoc": {
    "kind": "user",
    "methods": {},
    "notice": "Ensures that any contract that inherits from this contract is able to withdraw funds that are accidentally received or stuck.",
    "version": 1
  }
}